:040000000C942D012E
:100004000C9400000C9400000C9400000C9400006C
:100014000C9400000C9400000C9400000C9400005C
:100024000C9400000C94AA030C9400000C9400009F
:100034000C9400000C946A030C9400000C940000CF
:100044000C9400000C9400000C9400000C9400002C
:100054000C9400000C9400000C9400000C9400001C
:100064000C94C9030C9400000C9400000C94000040
:100074000C9400000C9400000C9400000C940000FC
:100084000C9400000C9400000C9400000C940000EC
:100094000C9400000C9400000C9400000C940000DC
:1000A4000C9400000C9400000C9400000C940000CC
:1000B4000C9400000C9400000C9400000C940000BC
:1000C4000C9400000C9400000C9400000C940000AC
:1000D4000C9400000C9400000C9400000C9400009C
:1000E4000C9400000C9400000C9400000C9400008C
:1000F4000C9400000C9400000C9400000C9400007C
:100104000C9400000C9400000C9400000C9400006B
:100114000C9400000C9400000C9400000C9400005B
:100124000C9400000C9400000C9400000C9400004B
:100134000C9400000C9400000C9400000C9400003B
:100144000C9400000C9400000C9400000C9400002B
:100154000C9400000C9400000C9400000C94070410
:100164000C9400000C9400000C9400000C9400000B
:100174000C9400000C9400000C9400000C940000FB
:100184000C9400000C9400000C9400000C940000EB
:100194000C9400000C9400000C9400000C940000DB
:1001A4000C9400000C9400000C9400000C940000CB
:1001B4000C9400000C9400000C9400000C940000BB
:1001C4000C9400000C9400000C9400000C940000AB
:1001D4000C9400000C9400000C9400000C9400009B
:1001E4000C9400000C9400000C9400000C9400008B
:1001F400900195011C00A00F01003030302E3030EA
:100204003030302E303000000000000000000000CC
:1002140000000000000000000000000000000000DA
:10022400000000002C2025642C2025332E3266008B
:100234002D4E414E000001002D4E414E00494E46C8
:10024400000006002C28FE0106003C2804020100E0
:100254005A283A020000F894EE27E8BFE9BFEABF43
:10026400F091CC01F860F093CC01F8EDF4BFE09389
:10027400A200E0934004A0918000AD7FA160F4BF90
:10028400A093800080E090E2A0E0B0E2ED930197BB
:10029400E9F7E6E4F2E085919591009761F0A59184
:1002A400B59105901590BF01F00105900D9201974D
:1002B400E1F7FB01F0CF8BBFE0E0E0B9E1B9E2B9CF
:1002C400E3B9E4B9E5B9E6B9E7B9E8B9E9B9EAB92E
:1002D400EBB9ECB9EDB9EEB9EFB92E2E3E2E4E2E98
:1002E4005E2E6E2E7E2E8E2E9E2EAE2EBE2EDE2EDA
:1002F400EFEFEDBFEFE3EEBFC0E0D8E20C9491075F
:100304001A930A930FB7F894E0915000E160E093D8
:100314005000E0914100E0781E2FE8EDE4BF109317
:100324004100E0916800EE7FE0936800E0915100A5
:10033400E170E1F3E0914000E87F1E2FE8EDE4BFB7
:1003440010934000E0915000E17EE0935000E09172
:10035400B400EC7FE093B4000FBFB7C1E0E0E093DA
:100364000406E0930006E0931006E0931106E09380
:100374001206E0931306E0931406E0931506E09347
:100384001606E0931706E0910906E07FE09309065C
:10039400E0E0E0930A06E0930B06E0932406E09382
:1003A4002006E0933006E0933106E0933206E093B2
:1003B4003306E0933406E0933506E0933606E09383
:1003C4003706E0912906E07FE0932906E0E0E09318
:1003D4002A06E0932B06E8E0E0934406E093400607
:1003E400E0E0E0935006E0935106E0935206E09378
:1003F4005306E0935406E0935506E0935606E093C3
:100404005706E0914906E07FE0934906E0E0E09377
:100414004A06E0934B06E8E0E0936406E093600646
:10042400E0E0E0937006E0937106E0937206E093D7
:100434007306E0937406E0937506E0937606E09302
:100444007706E0916906E07FE0936906E0E0E093D7
:100454006A06E0936B06E0938406E0938006E093DB
:100464009006E0939106E0939206E0939306E0935E
:100474009406E0939506E0939606E0939706E09140
:100484008906E07FE0938906E0E0E0938A06E09342
:100494008B06E093A406E093A006E093B006E093F5
:1004A400B106E093B206E093B306E093B406E0939A
:1004B400B506E093B606E093B706E091A906E07F9F
:1004C400E093A906E0E0E093AA06E093AB06E0938C
:1004D400E406E093E006E093F006E093F106E0938F
:1004E400F206E093F306E093F406E093F506E09356
:1004F400F606E093F706E091E906E07FE093E9066B
:10050400E0E0E093EA06E093EB06E0930407E0936F
:100514000007E0931007E0931107E0931207E093BC
:100524001307E0931407E0931507E0931607E0938D
:100534001707E0910907E07FE0930907E0E0E09303
:100544000A07E0930B07E0932407E0932007E09366
:100554003007E0933107E0933207E0933307E093E9
:100564003407E0933507E0933607E0933707E091CB
:100574002907E07FE0932907E0E0E0932A07E0936E
:100584002B07E093C407E093C007E093D007E09300
:10059400D107E093D207E093D307E091C907E07F46
:1005A400E093C907E0E0E093CA07E093CB07E09348
:1005B400E407E093E007E093F007E093F107E091AC
:1005C400E907E07FE093E907E0E0E093EA07E093DE
:1005D400EB070895E0E1E093B200E2E5E093B300B5
:1005E4000895BA93AA93A881B981EC91E07FEC9322
:1005F4001996ECE0EC9398C21A930A931FB7F894F7
:10060400A0E0B8E0EEDFE0910008E07FE160E09375
:100614000008E0910108E870E0930108E091030804
:10062400E071E0930308E0910608E07FE160E09365
:100634000608E0910708E070E0930708E09190084D
:10064400EE7FE0939008E0919900EE7F0E2FE8EDA5
:10065400E4BF00939900E0918008E07CE093800877
:10066400E0918308E87EE0938308E0E0E093820869
:10067400A4E8B8E00A2EAC91E0918408E470EA2B77
:10068400A02DEC93E0910C08E0930C08E0E0F0E07E
:10069400E0932008F0932108EFE1FEE4E0932608BC
:1006A400F0932708E0E0F0E0E0932808F0932908AD
:1006B400E0932A08F0932B08E0932C08F0932D087C
:1006C400E0932E08F0932F081FBF09911991089504
:1006D4000E94C50DF10131961F01B4C01A93E09137
:1006E4005000E460E0935000E0915100E470E1F3C5
:1006F400E0914300E17FE560E0934300E091000472
:10070400E87FE09300041FB7F894E0910104E170DE
:10071400E1F7E0E0F4E0E0930A04F0930B04E0E096
:10072400F0E0E0930804F0930904E0930C04F093E0
:100734000D041FBFE0910004E87FE160E093000432
:10074400E0910204E07FE160E093020419910895CE
:100754000E94C50DF20131962F0174C0E8E0E093C8
:100764004506E3E0E093A508E091A308E07CE0619E
:10077400E093A308EBE0E093A608E0E9E093A70880
:10078400E091A408E07EE861E093A40808950E9443
:10079400C50D1A930A931091A1080091A008E12FA6
:1007A400EC7181F4E72D7394F0E0E050F84D008390
:1007B400E8E0E71509F477249394E8E0E91511F4E7
:1007C4009924009A3DC0AA93E091A108E072E1F354
:1007D400E881E093A00843C0E8E0E0936506E3E025
:1007E400E093A509E091A309E07CE061E093A3090B
:1007F400EBE0E093A609E0E9E093A709E091A409FE
:10080400E07EE861E093A40908950E94C50D1A935F
:100814000A931091A1090091A009E12FEC7181F4D0
:10082400E82D8394F0E0E85FF74D0083E8E0E815F5
:1008340009F48824A394E8E0EA1511F4AA24019A9F
:1008440009911991E991EFBFF991E9911895AA934A
:10085400E091A109E072E1F3E881E093A009219617
:100864000895AA931A93E2E0E093CA01E981F0E0C3
:100874001491E0E0E093CA01E12F188155C10E9470
:100884006F12A0E2EEDFE0930C02A1E2EADFE09354
:100894000D02E0910102E17EE0930102E091040285
:1008A400E760E0930402E0910202E163E093020254
:1008B400E0912002E0760E94CA0DE062E0932102FA
:1008C4000E94D10D20E030E010E0103198F4E09166
:1008D4002002E068E0932002E0912302E170E1F35A
:1008E400E1E0E0932302E0912402F0E02E0F3F1FA9
:1008F4001F5FEBCFE0910002EE7FE0930002F9016D
:100904000E946611DE2EE0E0E0931802E0931902E3
:10091400E0912002E0760E94CA0DE061E09321029A
:10092400E0912802E076E160E0932802E091290258
:10093400E478E861E0932902E0913002E076E09304
:100944003002E0913102E478E0933102E091380220
:10095400E076E0933802E0913902E478E0933902DA
:10096400E0E0E0930302E0912202E07FE0932202C0
:10097400E0912A02E07FE0932A02E0913202E07FD4
:10098400E0933202E0913A02E07FE0933A020E945F
:10099400D10D0E9476123BC0AA930E946F12EC8183
:1009A400F0E0A0E2B2E00E945F11EA0FFB1F8F01AA
:1009B400D801EC91E068EC93F801A381A170E1F314
:1009C400D8011396E1E0EC93F80124813581AD2D33
:1009D400BB272A1B3B0BF9010E94761229C3BA9349
:1009E400AA931A930A9300E010E00E94DA0DEC91A6
:1009F400E03059F00E94DA0DAC91E5DE0E94DA0D88
:100A0400AC9125DF0F5F1F4FF0CF19810881249629
:100A14000895C998C0980E94E00D0E94E70D53976D
:100A240040F4C99B02C0C99801C0C99A0E94EC0D48
:100A3400F4CF0895C0980E94F60DC09AC89881E03A
:100A44008A95F1F70E94FB0D0E94F60DC09881E093
:100A54008A95F1F7C9980895C09AC8980E94F60D2E
:100A64000E94FB0DC0980895BA93AA93E881F98176
:100A7400E0931228F0931328CCDFDCDFE0E0E0936E
:100A84001828E0931928E0931A28E0931B28C09AA9
:100A9400C9980E94E00D0E94E70D1997D8F4E091DF
:100AA4001228E07811F0C09802C0C09AC89881E07A
:100AB4008A95F1F70E94F60DC998E0911228F091F9
:100AC4001328EE0FFF1FE0931228F09313280E94BF
:100AD400EC0DE1CFC0980E94F60D0E94FB0DD09B57
:100AE40004C081E08A95F1F7FACF0E94E00D0E94DC
:100AF400E70D5197B8F40E94000E0E946F110E94F6
:100B0400090EC99AD09B05C00E94000EE1600E94A4
:100B1400090EC9980E94E70D189709F49DDF0E94F9
:100B2400EC0DE5CF0E94000E22960895A3E0B0E0FC
:100B34009BDFE0931C28F0931D2860931E2870937C
:100B44001F28A5E0B0E090DFE0932028F09321284F
:100B540060932228709323280E94120EA13AEFE09A
:100B6400BE07E0E08E07E0E09E076CF0E0911C28F1
:100B7400F0911D2860911E2870911F28E05AFF40B3
:100B84006040704008C00E94120EE0EAFFE060E09E
:100B940070E00E944D11E0932428F093252860937F
:100BA4002628709327280E941B0EA0912028B0911C
:100BB400212880912228909123280E949F11ACE142
:100BC400B0E080E090E00E949F11DF01CB01E0EAF9
:100BD400F6E861E070E00E94DC11E0931428F093E1
:100BE400152860931628709317280E941B0EA5E9F8
:100BF400B1E080E090E00E949F110E94240EDF018A
:100C0400CB01E0911428F091152860911628709179
:100C140017280E945211A059B14080409040A093DF
:100C24002828B093292880932A2890932B28089564
:100C34000E942D0E0E94320E0E94DC11E05DAC81F8
:100C4400BD81EC930E94370E0E94320E0E94F11176
:100C5400DF01CB01E8EEF3E060E070E00E94DC111C
:100C6400E05DAC81BD811196EC930E94370EE8EEF5
:100C7400F3E060E070E00E94F1110E94240EE05D58
:100C8400AC81BD811296EC930E94370EE4E6F0E04D
:100C940060E070E00E94F111DF01CB01EAE0F0E0D6
:100CA40060E070E00E94DC11E05DAC81BD811496CF
:100CB400EC930E94370EEAE0F0E060E070E00E94FE
:100CC400F111E05DAC81BD811596EC93AC81BD81E1
:100CD400AC91A03321F4AC81BD81E0E2EC93AC8112
:100CE400BD81AC91A03231F4AC81BD811196AC913F
:100CF400A03309F004C0AC81BD81E0E2EC93D9C01B
:100D040015DFECE2F8E2FA93EA93A0912428B0917B
:100D1400252880912628909127288ADFECE3F8E2A1
:100D2400FA93EA93A0912828B091292880912A283F
:100D340090912B287DDFACE2B8E251DEACE243DDDA
:100D4400ACE285DDACE3B8E24ADE0895E09AE89AC5
:100D5400A0E022DEE0934C28F0934D28E09AE89836
:100D6400662777270E940C10AAEBB9E48CE09EE377
:100D74000E943A0EE0E0F0E068EC72E40E943F0E5C
:100D84000E94D50FE0934E28F0934F28A0914F284E
:100D9400AA232AF4E0E0E0934E28E0934F28089534
:100DA4000E9447120E94440EA9E3B4E389EE92E440
:100DB4000E94E410DF01CB010E94780BDF01CB011C
:100DC400ECE4F7E361E370EC0E94E410DF01CB0193
:100DD4000E94FC0B0E94470E0E944E120E94961025
:100DE4000E94D50F289608950E94471228970E94C2
:100DF4004C0EE0E0EA83EB83EC83ED83EE83EF8338
:100E04000E94500E0E94570E0E944E120E94E4103F
:100E14000E945C0E0E94370EEAE5F4E66BE170E492
:100E24000E94291168F40E94370EE7ECFBE467EB9B
:100E34007EE30E94291109F010F40C94220701C0EA
:100E440018C00E945F0E0E940C10DF01CB010E94AB
:100E5400500E0E94E4100E944212ACE4B7E381E316
:100E640090EC0E948C0CA9E3B4E389EE92E40E9416
:100E7400640E0E946B0EA8C10E944712EC81FD8192
:100E8400309719F40E94700E14C00E94440EA0E022
:100E9400B0E180E090E00E949F11DF01CB01EC8182
:100EA400FD810E947A110E94DC110E94370E0E947B
:100EB4004D11269608952497A1E06EDDE093542801
:100EC400F0935528FA93EA93ACE1B8E480E090E01B
:100ED400D3DF0E945C0E0E94440E0E944212A0E0E6
:100EE400B0E084EC93E45CDFE0935628F093572859
:100EF40060935828709359280E94440E0E9442120D
:100F0400A3E2B3EA80E090E06FDFE0935028F0932F
:100F1400512860935228709353280C94760B6E9743
:100F24008EE1A0E0B0E0EAE0F2E00E947B12F894E7
:100F3400E091A200E873E1601E2FE8EDE4BF109396
:100F4400A200E0E0E093A1000E9482010E94B001AF
:100F540041DB52DBC3DB02DC3FDC91DCC19A7894D9
:100F6400E1E0F0E0E415F50548F5CADEEFDEA3DFC5
:100F7400FE01FA93EA93E8E2F2E0FA93EA93E0914D
:100F84004E28F0914F280E947A110E944212E0915B
:100F94005028F091512860915228709153280E9452
:100FA400421288E02DD32C96DE0119DDADE04FDC32
:100FB400AAE04DDCADE007DC44245524D1CFFFCFBB
:100FC400BA93AA931A930A93AA81BB8112960E9498
:100FD4002412309729F1AA81BB8114960E9424120D
:100FE4008F01309761F00230E0E01E07C0F0F80195
:100FF40031978F01AA81BB811496ED93FC93AA814A
:10100400BB8112960E94750E3197AC81A083AA8190
:10101400BB810E942412FF2312F00E94750E06C0A9
:10102400AA81BB81EFEFFFEFED93FC931981088157
:1010340025960895BA93AA9324970E944C0EE0E84B
:10104400EA83EFE3EB830E946F12EE85FF85EF3FA7
:10105400AFEFFA0749F4E885F985FA93EA93A4E334
:10106400B2E00E949F0DAEC0EF3FAFE7FA0749F42C
:10107400E885F985FA93EA93A5E3B2E00E949F0D0F
:10108400A1C0AB85A73010F0E6E0EB871B85E12F0C
:101094001150E03019F00E947B0EF9CF0E945F0ED0
:1010A4000E945E1221F430E00E947B0E28C03B8532
:1010B4000E94810E09F010F40C9469080E947B0EC2
:1010C4000E94810E18F00E94860EFACF0DC00E9475
:1010D400810E40F40E94570E0E94930E0E949A0EB5
:1010E4003150F5CF0E947B0E0E945F0E0E949F0E2E
:1010F4000E949A0E0E94810E10F00E94860E10E04B
:10110400EB85E11798F10E94470E0E94A60E0E94FB
:101114009F0EDF01CB010E94670BEC83FD836E837E
:101124007F830E946B0E0E94570E0E94E4100E945F
:10113400D30F0E2F0E94AD0E0E94B40EFF27662718
:1011440077270E940C100E94470E0E9496100E945E
:10115400570E0E943F0E0E949A0EE12F1F5FE0304F
:1011640079F60E94AD0EEEE2EC93CACF0E94B90E5E
:101174003197AA85A08330302CF43195A885B985A0
:10118400EDE203C0A885B985EBE2EC930E94B90EA9
:101194000E94B90E3197BF01A32FEAE00E94B21159
:1011A400E05DDB01EC930E94B90E3197BF01A32FE0
:1011B400EAE00E94E111E05DDB01EC93A885B985CA
:1011C400E0E0EC930E94761260960895BA93AA9395
:1011D400EF9761970E946D1210E0FE01E85AFF4FED
:1011E4000190F081E02DE887F987FE01EA5AFF4F6C
:1011F4000190F081E02DEE83FF83AE81BF81E0E0BA
:10120400F0E0ED93FC93DE01A45ABF4F0E94750EEB
:101214003197E4912E2FE03011F40C94F90AE12F68
:10122400E03039F4253211F411E002C00E94BF0EFF
:10123400DDC1E130C1F4253219F40E94BF0ED5C1DD
:1012440012E0E0E0ED8B00E02D3211F401E0CEC1BC
:101254002B3219F4EBE2ED8BC9C1203219F4E0E230
:10126400ED8BC4C102C0E23039F450E013E0203306
:1012740011F40068BBC102C0E33091F4203310F0D4
:101284002A3308F007C0AAE05A9F502DE22FE053FA
:101294005E0FACC140E02E3211F414E0A7C10FC0C0
:1012A400E43099F4203310F02A3308F008C00062C7
:1012B400AAE04A9F402DE22FE0534E0F97C12C36EF
:1012C40019F4026015E092C104C0E53011F00C94E9
:1012D400F80AE22FE33659F40E94C60E0E94CD0E9E
:1012E4000E94C60EA481AA930E94D40E7EC1E53446
:1012F40011F0E53609F404C0E63611F00C94C8097F
:10130400FE017696EE87FF870E94DA0E0E9428126D
:101314000E94E10E0E94E60EAD85AA2322F0AD895B
:10132400AB3249F017C00E94E80E0E94A00F0E9441
:10133400E10EEDE2ED8B07FF05C0ED89EA930E9413
:10134400D40E08C0EE85FF853196EE87FF8731976E
:10135400AD89A08305FF46E0263651F40E94E80ECD
:101364000E9442124A93AB89BC890E94DC0C09C0DA
:101374000E94E80E0E9442124A932A93AC89BD89C6
:1013840059DEFE0176960E94ED0E1EC0E33739F455
:101394000E94E60E0E94F50E0E94ED0E0EC0E0378C
:1013A400C1F40E94E60E0E94F50EEE87FF87AE851B
:1013B400BF850E94B80D1E2F08600F77403011F0D2
:1013C400411708F001C0142F40E0E0E0EC8B30E05E
:1013D4006CC0E43611F0E93611F4046002C0E5375C
:1013E40091F4EAE0EC8B01FF08C0E0E0FAEC6AE972
:1013F4007BE30E94FA0E1AE021C00E94320E0E9482
:10140400FA0E15E01BC0E83511F4086004C0E83793
:1014140011F00C94F70AE0E1EC8B01FF08C0E0E066
:10142400F0E060E070E10E94FA0E18E007C0E0E02E
:10143400F0E160E070E00E94FA0E14E0403011F038
:101444000F7701C041E001FF08C00E94E60E0E9430
:10145400DA0E14960E9428120FC002FF07C00E94E1
:10146400E60E0E94F50E0E947A1106C00E94E60E56
:101474000E94F50E66277727EA87FB876C877D87AE
:1014840002FF12C0AD85AA2342F40E94E80E0E9416
:1014940057110E94E10EEDE2ED8BED89E03019F079
:1014A4001F5F4F5F01C00B7F342F00FD14C0151761
:1014B40010F4351708F00FC007FF08C002FF04C07E
:1014C4000B7F2D89115001C020E301C020E20E944E
:1014D400BF0E5150ECCF141790F4006102FF06C008
:1014E4000E94FF0E09F0515011504150E0E3EA937D
:1014F4000E94D40E503009F051504150ECCF312F9E
:10150400EC89E030B9F43030A1F003FF06C0EE8579
:10151400FF852591EE87FF8705C0AE85BF852D9198
:10152400AE87BF870E94BF0E503009F05150315032
:10153400EACF51C00E94110F0E94B7112E2F2A30FA
:1015440030F003FF02C0295C01C0295A01C0205DAC
:1015540004FD21C0213360F4A889B9898A899B8953
:10156400A130E0E0BE07E0E08E07E0E09E0709F46A
:101574000BC0431740F4531710F000FF01C010C014
:1015840020E207FF08C020E3006102FF04C00E94BC
:10159400FF0E09F051500E94BF0E503009F0515017
:1015A40031500E94110F0E94ED110E94E10EEC894E
:1015B400A889B9898A899B89FF27662777270E948A
:1015C400B7110E94FA0EE889F9896A897B890E9419
:1015D4005E1209F0AFCF00FF08C0503031F0515017
:1015E400E0E2EA930E94D40EF8CF10E00CCEAE8174
:1015F400BF810E9424120E947412EF966F96089580
:10160400FF92F82E26970E946F120E941A0F3097AD
:1016140019F4EFEFFFEF23C0DE0116960E94491183
:101624008D010E941A0FEE83FF83E0E0E887E987CB
:10163400DE011A960E9449110E942412FA93EA9339
:101644001A930A93E2EEF7E0FA93EA93DE011A960C
:10165400BDDD9F01AE81BF81E0E0EC93F9010E9402
:1016640076122A96FF9008950E9447127B816A8120
:10167400F981E88177FB770F67FD7160972F9E579B
:1016840081F078F0983190F4AA27BB278827089432
:101694008795B795A7959A95D1F7EA23FB236823F5
:1016A40005C0E8947727EE27FF2766276F7776959E
:1016B40008F4606877F9A991B99189919991EA1729
:1016C400FB076807790797FB08950E942D0E0E9477
:1016D400360B0E945C0E19F40E94440E05C0E6F716
:1016E4000E94440E0E94210F249608950E944712DE
:1016F40024971A930A930E94280F0E9462122CF0D6
:10170400EFEFFFEF6FE77FEF71C00E942D0F0E9494
:101714004212ADB7BEB711971F930F930E94830F68
:101724000F911F910E94320F0E94280FE3EFF4E003
:1017340065E37FE30E94291140F40E94370F0E9461
:1017440046100E94320F015010400E942D0F0E943B
:10175400210F7F936F93FF93EF930E942D0FA0E0CF
:10176400B0E080E89FE30E944610AF91BF918F9153
:101774009F910E94E4100E94320F0E94370F0E9432
:10178400390FA6E2B2E485E69FE30E943A0EEEE446
:10179400F1E164E570E40E943F0E0E94280F0E946C
:1017A40096107F936F93FF93EF930E94400FADE4E5
:1017B400B1E184ED9FE30E943F10AF91BF918F91FF
:1017C4009F910E94E4107F936F93FF93EF93F8012E
:1017D4000E94450FA8E1B2E781E39FE30E949610BF
:1017E400AF91BF918F919F910E94461019810881FA
:1017F4002A9608950E94471228971A930A930E94E2
:101804004A0FE0E5FCEA6EEA72EC0E94291118F432
:101814000E94700E7BC00E94E80E0E945E1219F4B2
:101824000E944F0F73C00E944A0FE8E1F2E761EB98
:1018340072E40E94291109F010F40C94260CEFEFC5
:10184400FFEF6FE77FE762C00E944A0FEBE3FAEA1B
:1018540068EB7FE30E9496100E94E10E0E944A0FFB
:1018640034DF0E94D50F8F01F8010E944A0F0E94B5
:10187400450F0E943F0EDF01CB01E0E0F0E060E0A5
:101884007FE30E943F0E0E94320F0E94370F0E9496
:10189400390FADE6BCE48CE69DE30E949610A6EAFF
:1018A400B3EE86EE90E40E9446100E94280F0E9438
:1018B40096100E94320F0E94400FA8E2BDE886EA0B
:1018C40091E40E9446100E94540F0E942D0F0E9422
:1018D400590F0E944610A3EFB4E085EB9FE30E94EA
:1018E40096107F936F93FF93EF930E94280F0E94AB
:1018F400400F0E943F10AF91BF918F919F910E9422
:10190400E4100E944212D8010E94940F19810881A8
:101914002E9608950E94471224970E945E0F0E94FB
:101924005E1219F40E94700E43C0A885B9858A8599
:101934009B850E94621284F40E946B0E0E945E12C8
:1019440019F40E944F0F34C0A885B9858A859B85F8
:101954000E94630F4FDF2CC00E946B0EDE010E94B9
:10196400D50F0E942E120E94440E0E940C10DF011B
:10197400CB010E946B0E0E94681219F00E94700E37
:1019840017C00E945E0F0E94A00FDF01CB010E94CE
:10199400630F30DFE887F9876A877B87E881E17026
:1019A40019F40E945E0F04C00E945E0F0E94A00FF3
:1019B4002C960895BA93AA9324970E944C0EE0E0C3
:1019C400EA83EFE3EB831A930A93EB85FC85EF3FFD
:1019D400AFEFFA0739F40E94670FACE3B2E00E945C
:1019E4009F0DA7C0EF3FAFE7FA0739F40E94670FD6
:1019F400ADE3B2E00E949F0D9CC0AC85AA2362F4C3
:101A0400E985FA856B857C850E94A00F0E946C0F86
:101A14000E94710FEDE2EC93A885A73010F0E6E088
:101A2400E8871885E12F1150E03039F00E94590FF2
:101A34000E94A60E0E94540FF5CF0E94780F0E94B8
:101A440046100E946C0F10E00E944F0F0E94540F2A
:101A54000E94780F0E94291188F00E94590F0E9459
:101A6400930E0E94540F1F5F173238F00E94670FC5
:101A7400A1E4B2E00E949F0D5CC0EACF103029F4CB
:101A84000E94710FE0E3EC9329C0E12F1150E03084
:101A940029F10E94590F0E94A60E0E949F0EDF0199
:101AA400CB010E94670B0E94540F0E94780F0E9482
:101AB400E4100E94D30F0E2F0E94710F0E94B40EE7
:101AC400F0E00E94590F0E94450F0E9496100E9458
:101AD4007E0F0E943F0E0E946C0FD7CFE885E03046
:101AE40021F10E94710FEEE2EC93E885E150E88762
:101AF400EF5FD9F00E947E0F0E94930E0E946C0F3C
:101B0400E985FA856B857C850E94D30F0E2F0E9490
:101B1400710F0E94B40EF0E00E947E0F0E94450FE8
:101B24000E943F0E0E946C0FE0CFAE81BF81E0E0C7
:101B3400EC93198108812D960895BA93AA93E9919B
:101B4400F991A991B991CD0105900D920020E1F789
:101B5400FC010895BA93AA93A991B991EE27FF279E
:101B64006D91662311F03196FBCF0895BA93AA9331
:101B7400AA27BB27E991F9910590002011F011964D
:101B8400FBCFFD010895EA93FA93EFB7EA93089522
:101B9400E160E0932002E0912102E4780895E0916D
:101BA4000002E160E093000281E08A95F1F7089574
:101BB400F801AA81BB81AE0FBF1F0895E1E0F0E0F8
:101BC400E0931028F09311280895A0911028B09163
:101BD40011280895E0911028F09111283196E0938E
:101BE4001028F09311280895C99A81E08A95F1F795
:101BF4000895C99881E08A95F1F70895E09118282D
:101C0400F091192860911A2870911B280895E09387
:101C14001828F093192860931A2870931B280895A4
:101C2400A0911C28B0911D2880911E2890911F28F6
:101C34000895E0912028F091212860912228709144
:101C440023280895DF01CB01E4E6F0E060E070E0D2
:101C54000E94DC1108950E9447120E9438120895D0
:101C6400E0E1F7E260E070E008950E943812089520
:101C74000E949610DF01CB0108950E9451120E9428
:101C84003F1008950E9433120895AC81BD818E8166
:101C94009F810895E0E0E883E9830895E885F98564
:101CA4006A857B850E940C100895AC85BD858E8560
:101CB4009F8508950E943D120895EC85FD856E85EB
:101CC4007F8508950E949610EC83FD836E837F8345
:101CD4000895EC81FD816E817F810895E0E0F0E05C
:101CE40060E070E008950E9424123196ED93FC9315
:101CF4000895CBDFE0E0F0E060E271E4E3CFE9DFF8
:101D0400D4DF0E9429110895D0DFEDECFCEC6CECDB
:101D14007DE30E949610EC87FD876E877F873F5F87
:101D24000895E0E0F0E060E271E40E949610089506
:101D3400EC87FD876E877F870895A0E0B0E080E0A0
:101D44009FE30E9446100895EDECFCEC6CEC7DE3FF
:101D54000E9496100895A885B9851196A887B98719
:101D640011970895E02FE05DEC93E02F0895E88546
:101D7400F9853196E887F98708952A93AF81B88564
:101D8400E985FA8509950895FE01E65AFF4F019009
:101D9400F081E02D08953497DE01A65ABF4FED93EC
:101DA400FC930895AF81B885E985FA85099508956E
:101DB400DE01A65ABF4F0D90BC91A02D0895EA876D
:101DC400FB876C877D870895DFDFE5CFEA85FB8598
:101DD4006C857D850895EE87FF87AE85BF850E945B
:101DE400AC0D1E2F0895E4DF14960E94241208956A
:101DF400E88BF98B6A8B7B8B08950B7FED89EA93D3
:101E0400DE01A95ABF4F0D90BC91A02DFE01E75AE7
:101E1400FF4F0190F081E02D099550300895E88935
:101E2400F9896A897B89AA85BB858C859D850895F6
:101E3400DE011C960E9449110E9424120895A0E01C
:101E4400B0E080E89FE30E943F100895AE81BF8117
:101E5400888599850895EE81FF816885798508953F
:101E6400EE83FF83688779870895F5DFEFCF0E94BB
:101E74009610EA83FB836C837D830895EA81FB815A
:101E84006C817D8108950E947A110E940C1008953E
:101E9400AA85BB858C859D850895E0E0F0E060E827
:101EA4007FE30895EA83FB836C837D830895AA818D
:101EB400BB818C819D810895E885F9856A857B8540
:101EC40008950E94780BE1DED3CEEE81FF81FA9370
:101ED400EA930895E987FA876B877C870895AE8132
:101EE400BF811196AE83BF8311970895C7DFA9857B
:101EF400BA858B859C850895A985BA858B859C8533
:101F04000895E991F9916991799177FB660F771FAB
:101F140088277E57880B7D938C937EE7769567950B
:101F24006EF00895E991F9916991799177FB660FC3
:101F3400771F7A0F769567950EF008953097604075
:101F4400704009F070580895552342F4503811F444
:101F5400E0FF04C03196691F791F6BF050E85727E2
:101F640011F45F93CFC05F3F31F0660F000C5795BB
:101F74006795752F08955F9300200AF0CFC0C8C0FD
:101F840050E8192E1522880F991F9527550F87950C
:101F940050E8072E0522660F771F7527550F6795A2
:101FA4000895689401C0E8945F93F2DF703818F0E4
:101FB4007F3F08F4A7C056E1571BAAF45195583047
:101FC4000EF4593030F0EFEFFFEF6FEF7FE777F962
:101FD4001AC077275523B9F0EE0FFF1F661F771F2E
:101FE4005A95D1F710C07727583028F0EF2FF62FE5
:101FF400672F5850F9CF552331F076956795F795AB
:10200400E7955A95D1F700200AF44FD15F910895CE
:10201400689401C0E894309760407040B1F00024A7
:1020240026F0772312F4009440D1172E7EE111207C
:1020340032F07A95EE0FFF1F661F111CF9CFEF2FB8
:10204400F62F612D5F938ADF5F9108954F93AF015F
:10205400FD01DA01AB01BC01CA01402D012C142E93
:102064004F910895EA0FFB1F681F0895E095F095BE
:102074006095EF5FFF4F6F4F08955F9381DF903856
:1020840071F150E8152604C05F937ADF903839F176
:10209400703821F1572F591B2BF112F4D7DFFACFE7
:1020A400583118F0AA27BB278827583028F0AB2FBF
:1020B400B82F88275850F9CF552329F08695B7951E
:1020C400A7955A95D9F7502D512572F0CBDF38F4E6
:1020D4006795F795E795739513F420C0B7DF3EDF56
:1020E4005F910895D8F7FBCFEA1BFB0B680B51F007
:1020F40010F40094BBDF662392F3EE0FFF1F661FFC
:102104007A95CBF7EE27FF27662777275F91089507
:10211400EFEFFFEF6FE77FEF5F910895EFEFFFEFD2
:102124006FE77FE75F9108955F932ADF703851F37B
:10213400903841F301240894791F23F41CF3002000
:102144003AF3ECCF0F921F932F933F934F931127A2
:1021540022279927689FA0018F9F302D410D591F79
:102164006B9F300D411D591F8E9F27D0BF9F25D0D7
:102174006A9F23D0BE9F1DD0AF9F1BD0AE9F110D71
:10218400291F391F491F591FE32FF42F652F522F81
:102194004F913F912F911F910F9066232AF0550F75
:1021A400EE1FFF1F661F02C073954BF2CDDE5F91D9
:1021B4000895100D211D391F02C0200D311D491F26
:1021C400591F08955F93DCDE703821F411200AF45E
:1021D4009FCFA4CF903809F495CF01240894970B8E
:1021E4001BF4D4F30020F3CF792F1F932F933F9345
:1021F4004F9311241127222733274427552790E290
:10220400AE17BF078607410730F0AE1BBF0B860B26
:10221400410B089401C08894551F221F331F111CC1
:10222400AA1FBB1F881F441F9A9551F7F901612DFE
:102234004F913F912F911F91662332F0550FEE1F5E
:10224400FF1F661F7A9543F27FDE5F9108959923FD
:102254009AF0772342F0971748F029F4AE17BF0796
:10226400860720F031F098948894089598940894FF
:1022740008951894889408957723C2F7971798F3CC
:10228400A9F7EA17FB07680788F399F3ECCF002452
:10229400AF0DB01D0895EA1BFB0B680B790B089575
:1022A400AE1BBF0B860B970B0895F0956095709548
:1022B400E195FF4F6F4F7F4F0895EE0FFF1FEE0F15
:1022C400FF1FEE0FFF1F0895F695E795F695E79526
:1022D400F695E795F695E7950895EE0FFF1F661FAF
:1022E400771F0895FE2FFF0FFF0B6F2F7F2F089589
:1022F4006F2F660F660B762F08957A9F702D6B9F54
:10230400700DF89F700DE99F700D6A9F602D710D1F
:10231400FB9F600D711DE89F600D711D8827FA9F5A
:10232400F02D610D781FEB9FF00D611D781FEA9F62
:10233400E02DF10D681F781F089571D0DEDF0EF4D3
:10234400B4DF0895002498E0AA0F001C0E1A10F4BC
:102354000E0E01C0A1609A95B9F7EA2FA02D089539
:1023640052D0F0DF0EF4E19508953F934F935F93BD
:10237400002411244427552730E2AA0FBB1F881FCD
:10238400991F001C111C441F551F0E1A1F0A460BCF
:10239400570B28F40E0E1F1E461F571F01C0A160C5
:1023A4003A9559F7FD01BC01D001CA015F914F91E3
:1023B4003F91089534D0D9DF0EF477DF0895E8947F
:1023C400A7FF02C0A1956894E7FDE195BBDFEA2F62
:1023D4000EF4E1950895C9DFFD01BC010895E89468
:1023E40097FF09C0A095B09580959095AF5FBF4FBA
:1023F4008F4F9F4F689477FD58DFB7DFFD01BC0115
:102404000EF453DF0895E894E7FF02C0E195689461
:10241400A7FF04C0A19500F8039400FA0895E89476
:1024240077FF02C042DF689497FF0BC00024A09599
:10243400B095809590951196801D901D00F8039499
:1024440000FA0895ED91FC9111970895ED91FD9195
:102454006D917C9113970895ED93FD936D937C9307
:102464000895E881F9816A817B810895A881B98101
:102474008A819B810895E883F9836A837B83089525
:102484007A936A93FA93EA9308959A938A93BA9300
:10249400AA930895689401C0E89401D0BCDD182E75
:1024A400862F612D192E972F712D1B2EBF2FF12DE5
:1024B4001A2EAE2FE12D0895309760407040089594
:1024C40000240A160B06080609060895EA17FB07F6
:1024D4006807790708955A934A933A932A931A936B
:1024E4000A9308955D814C813B812A811981088179
:1024F4000895AC0FBD1F05900D928A95E1F70895DC
:00000001FF
